{
  "_format": "hh-sol-artifact-1",
  "contractName": "Prescription",
  "sourceName": "contracts/Prescription.sol",
  "abi": [
    {
      "inputs": [
        {
          "internalType": "string",
          "name": "_prescriptionId",
          "type": "string"
        },
        {
          "internalType": "string",
          "name": "_prescriptionDataHash",
          "type": "string"
        }
      ],
      "stateMutability": "nonpayable",
      "type": "constructor"
    },
    {
      "inputs": [],
      "name": "isValid",
      "outputs": [
        {
          "internalType": "bool",
          "name": "",
          "type": "bool"
        }
      ],
      "stateMutability": "view",
      "type": "function"
    },
    {
      "inputs": [],
      "name": "usePrescription",
      "outputs": [],
      "stateMutability": "nonpayable",
      "type": "function"
    },
    {
      "inputs": [
        {
          "internalType": "string",
          "name": "_inputHash",
          "type": "string"
        }
      ],
      "name": "verifyPrescription",
      "outputs": [
        {
          "internalType": "bool",
          "name": "",
          "type": "bool"
        }
      ],
      "stateMutability": "view",
      "type": "function"
    }
  ],
  "bytecode": "0x60806040523480156200001157600080fd5b5060405162000aa938038062000aa9833981810160405281019062000037919062000211565b8160009081620000489190620004e1565b5080600190816200005a9190620004e1565b506001600260006101000a81548160ff0219169083151502179055505050620005c8565b6000604051905090565b600080fd5b600080fd5b600080fd5b600080fd5b6000601f19601f8301169050919050565b7f4e487b7100000000000000000000000000000000000000000000000000000000600052604160045260246000fd5b620000e7826200009c565b810181811067ffffffffffffffff82111715620001095762000108620000ad565b5b80604052505050565b60006200011e6200007e565b90506200012c8282620000dc565b919050565b600067ffffffffffffffff8211156200014f576200014e620000ad565b5b6200015a826200009c565b9050602081019050919050565b60005b83811015620001875780820151818401526020810190506200016a565b60008484015250505050565b6000620001aa620001a48462000131565b62000112565b905082815260208101848484011115620001c957620001c862000097565b5b620001d684828562000167565b509392505050565b600082601f830112620001f657620001f562000092565b5b81516200020884826020860162000193565b91505092915050565b600080604083850312156200022b576200022a62000088565b5b600083015167ffffffffffffffff8111156200024c576200024b6200008d565b5b6200025a85828601620001de565b925050602083015167ffffffffffffffff8111156200027e576200027d6200008d565b5b6200028c85828601620001de565b9150509250929050565b600081519050919050565b7f4e487b7100000000000000000000000000000000000000000000000000000000600052602260045260246000fd5b60006002820490506001821680620002e957607f821691505b602082108103620002ff57620002fe620002a1565b5b50919050565b60008190508160005260206000209050919050565b60006020601f8301049050919050565b600082821b905092915050565b600060088302620003697fffffffffffffffffffffffffffffffffffffffffffffffffffffffffffffffff826200032a565b6200037586836200032a565b95508019841693508086168417925050509392505050565b6000819050919050565b6000819050919050565b6000620003c2620003bc620003b6846200038d565b62000397565b6200038d565b9050919050565b6000819050919050565b620003de83620003a1565b620003f6620003ed82620003c9565b84845462000337565b825550505050565b600090565b6200040d620003fe565b6200041a818484620003d3565b505050565b5b8181101562000442576200043660008262000403565b60018101905062000420565b5050565b601f82111562000491576200045b8162000305565b62000466846200031a565b8101602085101562000476578190505b6200048e62000485856200031a565b8301826200041f565b50505b505050565b600082821c905092915050565b6000620004b66000198460080262000496565b1980831691505092915050565b6000620004d18383620004a3565b9150826002028217905092915050565b620004ec8262000296565b67ffffffffffffffff811115620005085762000507620000ad565b5b620005148254620002d0565b6200052182828562000446565b600060209050601f83116001811462000559576000841562000544578287015190505b620005508582620004c3565b865550620005c0565b601f198416620005698662000305565b60005b8281101562000593578489015182556001820191506020850194506020810190506200056c565b86831015620005b35784890151620005af601f891682620004a3565b8355505b6001600288020188555050505b505050505050565b6104d180620005d86000396000f3fe608060405234801561001057600080fd5b50600436106100415760003560e01c80637f94360914610046578063a28c9c1a14610076578063bb5d40eb14610080575b600080fd5b610060600480360381019061005b9190610285565b61009e565b60405161006d91906102e9565b60405180910390f35b61007e6100f7565b005b610088610114565b60405161009591906102e9565b60405180910390f35b600060016040516020016100b29190610407565b60405160208183030381529060405280519060200120826040516020016100d99190610484565b60405160208183030381529060405280519060200120149050919050565b6000600260006101000a81548160ff021916908315150217905550565b6000600260009054906101000a900460ff16905090565b6000604051905090565b600080fd5b600080fd5b600080fd5b600080fd5b6000601f19601f8301169050919050565b7f4e487b7100000000000000000000000000000000000000000000000000000000600052604160045260246000fd5b61019282610149565b810181811067ffffffffffffffff821117156101b1576101b061015a565b5b80604052505050565b60006101c461012b565b90506101d08282610189565b919050565b600067ffffffffffffffff8211156101f0576101ef61015a565b5b6101f982610149565b9050602081019050919050565b82818337600083830152505050565b6000610228610223846101d5565b6101ba565b90508281526020810184848401111561024457610243610144565b5b61024f848285610206565b509392505050565b600082601f83011261026c5761026b61013f565b5b813561027c848260208601610215565b91505092915050565b60006020828403121561029b5761029a610135565b5b600082013567ffffffffffffffff8111156102b9576102b861013a565b5b6102c584828501610257565b91505092915050565b60008115159050919050565b6102e3816102ce565b82525050565b60006020820190506102fe60008301846102da565b92915050565b7f4e487b7100000000000000000000000000000000000000000000000000000000600052602260045260246000fd5b6000600282049050600182168061034b57607f821691505b60208210810361035e5761035d610304565b5b50919050565b600081905092915050565b60008190508160005260206000209050919050565b6000815461039181610333565b61039b8186610364565b945060018216600081146103b657600181146103cb576103fe565b60ff19831686528115158202860193506103fe565b6103d48561036f565b60005b838110156103f6578154818901526001820191506020810190506103d7565b838801955050505b50505092915050565b60006104138284610384565b915081905092915050565b600081519050919050565b60005b8381101561044757808201518184015260208101905061042c565b60008484015250505050565b600061045e8261041e565b6104688185610364565b9350610478818560208601610429565b80840191505092915050565b60006104908284610453565b91508190509291505056fea2646970667358221220fe5f5f8741a3038b9504577f936bddb32aecfe3232048f144256d74d8912012c64736f6c63430008180033",
  "linkReferences": {},
  "deployedLinkReferences": {}
}